:020000040000FA
:100000000C94EF000C9417010C9417010C94170139
:100010000C9417010C9417010C9417010C94170100
:100020000C9417010C9417010C9417010C941701F0
:100030000C9417010C9417010C9417010C941701E0
:100040000C94A0050C9417010C9410060C94EA056E
:100050000C9417010C9417010C9417010C941701C0
:100060000C9417010C9417013D3D3D3D3D3D3D3D38
:100070003D3D3D3D3D3D3D3D3D3D3D3D3D3D3D3DB0
:100080003D3D3D3D3D3D3D3D3D3D3D3D3D3D3D3DA0
:100090003D3D3D3D3D3D3D3D003E3E205452414EA7
:1000A000534D495353494F4E20434F4D504C4554A7
:1000B00045007D000020202274656D7065726174BA
:1000C0007572655F63223A20002C002020226C6943
:1000D0006768745F706374223A20002C002020222D
:1000E000736F696C5F706374223A20002C002020CB
:1000F0002268756D69646974795F706374223A204F
:10010000002C0020202274696D657374616D705F2E
:1001100073223A20007B003E3E2053454E44494E18
:10012000472053454E534F52204441544120544F91
:1001300020444154414241534500732073696E632A
:1001400065207374617274003E3E205452414E53D8
:100150004D495353494F4E204020003D3D3D3D3DCC
:100160003D3D3D3D3D3D3D3D3D3D3D3D3D3D3D3DBF
:100170003D3D3D3D3D3D3D3D3D3D3D3D3D3D3D3DAF
:100180003D3D3D3D3D3D3D3D3D3D3D0000000008C8
:10019000000201000003040700000000000000004E
:1001A00000000000250028002B00000000002400B3
:1001B00027002A00040404040404040402020202C6
:1001C000020203030303030301020408102040801A
:1001D0000102040810200102040810204206112424
:1001E0001FBECFEFD8E0DEBFCDBF11E0A0E0B1E091
:1001F000EEEDF6E102C005900D92A639B107D9F7F0
:1002000022E0A6E9B1E001C01D92A835B207E1F7EE
:1002100010E0CFEED0E004C02197FE010E94670BF2
:10022000CE3ED107C9F70E948D060C946D0B0C943D
:10023000000090E0FC01E853FE4F24918C549E4F47
:10024000FC018491882399F090E0880F991FFC01AC
:10025000E655FE4FA591B491FC01E056FE4F859105
:1002600094918FB7F894EC91E22BEC938FBF0895A3
:1002700090E0FC01E457FE4F2491FC01E853FE4F4F
:100280003491FC01EC54FE4FE491EE23C9F022239B
:1002900039F0233001F1A8F4213019F1223029F18D
:1002A000F0E0EE0FFF1FE056FE4FA591B4918FB71F
:1002B000F894EC91611126C030953E233C938FBF9A
:1002C00008952730A9F02830C9F0243049F78091EB
:1002D00080008F7D03C0809180008F7780938000A5
:1002E000DFCF84B58F7784BDDBCF84B58F7DFBCF27
:1002F0008091B0008F778093B000D2CF8091B00012
:100300008F7DF9CF3E2BDACF8E50806480937C00B6
:1003100080917A00806480937A0080917A0086FDD3
:10032000FCCF809178009091790008953FB7F894C0
:1003300080919F019091A001A091A101B091A20193
:1003400026B5A89B05C02F3F19F00196A11DB11D30
:100350003FBFBA2FA92F982F8827BC01CD01620F6C
:10036000711D811D911D42E0660F771F881F991F27
:100370004A95D1F70895AF92BF92CF92DF92EF9254
:10038000FF920F931F93CF93DF936C017B018B013F
:10039000040F151FEB015E01AE18BF08C017D1078F
:1003A00059F06991D601ED91FC910190F081E02D19
:1003B000C6010995892B79F7C501DF91CF911F916E
:1003C0000F91FF90EF90DF90CF90BF90AF90089586
:1003D000FC01538D448D252F30E0842F90E0821B4B
:1003E000930B541710F0CF96089501970895FC01D0
:1003F000918D828D981761F0A28DAE0FBF2FB11D28
:100400005D968C91928D9F5F9F73928F90E008957F
:100410008FEF9FEF0895FC01918D828D981731F039
:10042000828DE80FF11D858D90E008958FEF9FEF8D
:100430000895FC01918D228D892F90E0805C9F4F63
:10044000821B91098F739927089583EA91E00E9496
:10045000190221E0892B09F420E0822F089580E021
:1004600090E0892B29F00E94250281110C94000054
:100470000895FC01A48DA80FB92FB11DA35ABF4F39
:100480002C91848D90E001968F739927848FA68993
:10049000B7892C93A089B1898C91837080648C93E7
:1004A000938D848D981306C00288F389E02D808196
:1004B0008F7D80830895EF92FF920F931F93CF93C8
:1004C000DF93EC0181E0888F9B8D8C8D98131AC08F
:1004D000E889F989808185FF15C09FB7F894EE8976
:1004E000FF896083E889F9898081837080648083D3
:1004F0009FBF81E090E0DF91CF911F910F91FF901E
:10050000EF900895F62E0B8D10E00F5F1F4F0F73C5
:100510001127E02E8C8D8E110CC00FB607FCFACF80
:10052000E889F989808185FFF5CFCE010E943902E3
:10053000F1CFEB8DEC0FFD2FF11DE35AFF4FF08251
:100540009FB7F8940B8FEA89FB8980818062CFCFB7
:100550000F931F93CF93DF938C01D0E0C0E0F8019D
:10056000EC0FFD1F6491662341F083EA91E00E9445
:100570005B02892B11F02196F2CFCE01DF91CF9152
:100580001F910F910895CF93DF93EC01888D8823FD
:10059000B9F0AA89BB89E889F9898C9185FD03C0E6
:1005A000808186FD0DC00FB607FCF7CF8C9185FFCB
:1005B000F2CF808185FFEDCFCE010E943902E9CFD5
:1005C000DF91CF910895089590E080E00895CF9352
:1005D000DF93EC0160E08E810E94380161E08E8142
:1005E0000E94380160E08E810E9438018BE891E022
:1005F0000197F1F7DF91CF910895CF92DF92EF92BB
:10060000FF920F931F93CF93DF936C017C0187E0E0
:10061000E80EF11CD0E0C0E0062F10E0B8010C2E6F
:1006200002C0759567950A94E2F76170F7018191B0
:100630007F010E9438012196C430D10579F7C601A7
:10064000DF91CF911F910F91FF90EF90DF90CF90AE
:100650000C94E702CF92DF92EF92FF920F931F93D9
:10066000CF93DF93EC01F62E642F8C810E9438012A
:100670008D818F3F19F060E00E9438010F2D10E04E
:100680008F8584FF25C06E0187E0C80ED11CF12C38
:10069000E12CB8010E2C02C0759567950A94E2F71B
:1006A0006170F60181916F010E943801FFEFEF1A2E
:1006B000FF0A88E0E816F10461F7CE01DF91CF91DF
:1006C0001F910F91FF90EF90DF90CF900C94E70275
:1006D000B80184E0759567958A95E1F7CE010E948F
:1006E000FD026F2DCE01DF91CF911F910F91FF90F1
:1006F000EF90DF90CF900C94FD0240E0682F80E4F3
:1007000092E00C942A0381E00E947D038BE39FE139
:100710000197F1F70895CF93DF93613029F090911D
:100720004F02986090934F026093530210925402CC
:1007300090E49093550280935602805C8093570218
:10074000809144020E941901809145028F3F11F06F
:100750000E941901809146020E941901C0E4D2E072
:100760009E012054324080914F0284FD0AC084E0F3
:1007700090E02196281739073CF48E810E941901D8
:10078000EFCF88E090E0F5CF8BE39DE00197F1F7A4
:1007900060E0809144020E94380160E0809146024E
:1007A0000E943801809145028F3F19F060E00E945D
:1007B000380180914F0284FD34C063E080E492E010
:1007C0000E94FD02CBE4D6E4CE010197F1F763E08D
:1007D00080E492E00E94FD022197F1F763E080E45B
:1007E00092E00E94FD0283E592E00197F1F762E05A
:1007F00080E492E00E94FD0280914F0280620E949C
:100800007D0384E0809350028CE00E947D030E946F
:10081000830382E08093510286E0DF91CF910C94B4
:100820007D0380620E947D038BE496E40197F1F7DB
:1008300080914F0280620E947D0383E592E00197E0
:10084000F1F780914F0280620E947D03D5CF909195
:100850005302891710F08FEF890FE82FF0E0E05C6A
:10086000FD4F848980680C947D0341E00E942A0337
:1008700081E090E00895FB0101900020E9F73197B5
:10088000AF01461B570BDC01ED91FC910280F38117
:10089000E02D09948F929F92AF92BF92EF92FF92B8
:1008A0000F931F93CF93DF93CDB7DEB7A1970FB60A
:1008B000F894DEBF0FBECDBF7C01FA01CB0119A2B7
:1008C000223008F42AE08E010F5D1F4F822E912CFA
:1008D000B12CA12CBF01A50194010E94F308F901DC
:1008E000CA016A300CF5605DD8016E938D01232B2F
:1008F000242B252B79F790E080E0109721F0BD01A3
:10090000C7010E943B04A1960FB6F894DEBF0FBE4C
:10091000CDBFDF91CF911F910F91FF90EF90BF90CE
:10092000AF909F908F900895695CDECF462F50E086
:1009300070E060E02AE00C944A04BC0180E492E09C
:100940000C943B04CF93DF930E94A802EC016EE16C
:1009500071E083EA91E00E943B048C0F9D1FDF91C0
:10096000CF9108952F923F924F925F926F927F9214
:100970008F929F92AF92BF92CF92DF92EF92FF92AF
:100980001F93CF93DF93EC016A017B01722EAB01C1
:100990009601CB01B6010E945B0B61E271E081110F
:1009A00026C046015701E894B7F82FEF3FEF4FE715
:1009B0005FE7C501B4010E945B0B81110CC02FEFF2
:1009C0003FEF4FE75FE7C501B4010E94910965E27F
:1009D00071E0181664F02FEF3FEF4FE75FE4C701B7
:1009E000B6010E94E90A1816B4F469E271E0CE017A
:1009F000DF91CF911F91FF90EF90DF90CF90BF904C
:100A0000AF909F908F907F906F905F904F903F90AE
:100A10002F900C943B042FEF3FEF4FE75FECC701A3
:100A2000B6010E94910987FDE0CF20E030E0A901E6
:100A3000C701B6010E949109312C212C87FF0DC0FE
:100A4000E881F9810190F081E02D6DE2CE010995F8
:100A50001C01F7FAF094F7F8F09410E060E070E011
:100A600080E09FE3711641F020E030E040E251E485
:100A70000E9496091F5FF6CFA70196010E942509E3
:100A80002B013C010E94080A4B015C012AE0BC01D9
:100A9000A401CE010E944A047C01E20CF31C112344
:100AA000E1F1C501B4010E94370A9B01AC01C30109
:100AB000B2010E9424094B015C01E881F981019097
:100AC000F081E02D6EE2CE010995E80EF91E11507D
:100AD00020F120E030E040E251E4C501B4010E9481
:100AE000EE0A2B013C010E94080A4B01B12CA12CFB
:100AF0002AE0B501A401CE010E944A04E80EF91EC5
:100B0000C501B4010E94370A9B01AC01C301B201C7
:100B10000E9424094B015C01DACFC701DF91CF911C
:100B20001F91FF90EF90DF90CF90BF90AF909F907C
:100B30008F907F906F905F904F903F902F9008958F
:100B40001F920F920FB60F9211242F933F938F9302
:100B50009F93AF93BF9380919B0190919C01A09133
:100B60009D01B0919E0130919A0123E0230F2D3712
:100B700058F50196A11DB11D20939A0180939B0108
:100B800090939C01A0939D01B0939E0180919F0141
:100B90009091A001A091A101B091A2010196A11D87
:100BA000B11D80939F019093A001A093A101B093E8
:100BB000A201BF91AF919F918F913F912F910F9083
:100BC0000FBE0F901F90189526E8230F0296A11DC7
:100BD000B11DD2CF1F920F920FB60F9211242F93F7
:100BE0003F934F935F936F937F938F939F93AF93B5
:100BF000BF93EF93FF9383EA91E00E943902FF9144
:100C0000EF91BF91AF919F918F917F916F915F9184
:100C10004F913F912F910F900FBE0F901F901895FD
:100C20001F920F920FB60F9211242F938F939F93C1
:100C3000EF93FF93E091B301F091B4018081E091D3
:100C4000B901F091BA0182FD1BC090818091BC0175
:100C50008F5F8F732091BD01821741F0E091BC013D
:100C6000F0E0ED55FE4F958F8093BC01FF91EF9121
:100C70009F918F912F910F900FBE0F901F901895FD
:100C80008081F4CFE3EAF1E01382128288EE93E0F0
:100C9000A0E0B0E084839583A683B78384E091E0ED
:100CA0009183808385EC90E09587848784EC90E045
:100CB0009787868780EC90E0918B808B81EC90E029
:100CC000938B828B82EC90E0958B848B86EC90E00A
:100CD000978B868B118E128E138E148EE0E4F2E0C9
:100CE0001382128286E191E0918380838DE0848378
:100CF0008FEF85838CE086838BE087838AE0808713
:100D000089E0818788E08287138614861586168697
:100D1000178661E080E10C948B03789484B582603F
:100D200084BD84B5816084BD85B5826085BD85B58F
:100D3000816085BD80916E00816080936E0010920D
:100D40008100809181008260809381008091810088
:100D50008160809381008091800081608093800019
:100D60008091B10084608093B1008091B000816077
:100D70008093B00080917A00846080937A008091A3
:100D80007A00826080937A0080917A0081608093FB
:100D90007A0080917A00806880937A001092C10076
:100DA00064E084E10E948B03E091B301F091B4010F
:100DB00082E08083E091AF01F091B0011082E09178
:100DC000B101F091B2018FEC80831092BB01E091F0
:100DD000B701F091B80186E08083E091B501F09110
:100DE000B601808180618083E091B501F091B60108
:100DF000808188608083E091B501F091B6018081A7
:100E000080688083E091B501F091B60180818F7D8B
:100E1000808387E00E94190185E00E94190186E025
:100E20000E9419010E94830380E00E94270486E645
:100E300091E00E949D040E9496014B015C0128EE06
:100E4000C22E23E0D22EE12CF12C0E9496016819CB
:100E500079098A099B09683E734081059105A8F3C9
:100E600021E0C21AD108E108F10838EE830E33E020
:100E7000931EA11CB11CC114D104E104F10429F793
:100E80000E94830388248A9493E0992EA12CB12C8C
:100E900080E0282E80E0382E81E10E9484017C01D0
:100EA00080E10E9484016C018FE00E9484013C017A
:100EB0008EE00E9484012C0124E630E0D7010E94DC
:100EC000600BA50194010E94D408122F24E630E0A3
:100ED000D6010E94600BA50194010E94D408C22F84
:100EE000022F24E630E0D3010E94600BA50194019B
:100EF0000E94D408D22F722EB201550C880B990B88
:100F00000E94390A20E030E040EA50E40E94EE0AF4
:100F100020E030EC4FE754E40E94960920E030E0F6
:100F200048EC52E40E94EE0A6B017C0161E0CE3194
:100F300008F060E087E00E94380161E053E1571556
:100F400008F460E086E00E94380120E030E040E9EB
:100F500051E4C701B6010E949109682F661F6627F8
:100F6000661F85E00E94380180E00E94270489E71F
:100F700091E00E949D04612F80E492E00E9496041B
:100F80008CE791E00E949D0480E891E00E949D041E
:100F90006C2F80E492E00E94960483E891E00E9426
:100FA0009D0481E00E94270486E891E00E949D0450
:100FB0006D2F80E492E00E9496048CE791E00E94FD
:100FC0009D0489E891E00E949D0421E0B701A601FB
:100FD00080E492E00E94B2046FED80E492E00E940F
:100FE00035048CE891E00E949D0482E00E94270471
:100FF0008DE291E00E3110F086E391E00E949D04B5
:1010000083E1871508F4CAC080E491E00E949D0442
:1010100083E00E94270420E030E040E951E4C7016A
:10102000B6010E94910987FDBCC08CE591E00E9449
:101030009D048FE891E00E949D048FB7F894409042
:101040009B0150909C0160909D0170909E018FBF0C
:101050008091960190919701A0919801B09199018A
:10106000A3019201281B390B4A0B5B0BDA01C90162
:10107000843F9140A105B10508F484C040929601D7
:101080005092970160929801709299018BE591E0DE
:101090000E94A20488E491E00E94A802C301B20168
:1010A00028EE33E040E050E00E94F30829013A01C5
:1010B0002AE0BA01A20183EA91E00E944A048AE38D
:1010C00091E00E94A20487E191E00E94A20485E1E0
:1010D00091E00E94A20483E091E00E94A8022AE02D
:1010E000B301A20183EA91E00E944A0481E091E009
:1010F0000E94A2048EEE90E00E94A802612F83EA73
:1011000091E00E9496048CEE90E00E94A2048DED86
:1011100090E00E94A8026C2F83EA91E00E9496045E
:101120008BED90E00E94A2048BEC90E00E94A8025C
:101130006D2F83EA91E00E94960489EC90E00E9472
:10114000A20485EB90E00E94A80221E0B701A6016D
:1011500083EA91E00E94B20484EB90E00E94A20432
:1011600082EB90E00E94A20489E990E00E94A20430
:1011700088E690E00E94A2046EE171E083EA91E0CB
:101180000E943B042114310409F486CE0E942502FA
:10119000882309F47DCE0E9400007ACE89E491E094
:1011A00035CF83E591E043CF052E97FB1EF40094E5
:1011B0000E94EB0857FD07D00E94F30807FC03D0FC
:1011C0004EF40C94EB0850954095309521953F4F87
:1011D0004F4F5F4F089590958095709561957F4F23
:1011E0008F4F9F4F0895A1E21A2EAA1BBB1BFD0132
:1011F0000DC0AA1FBB1FEE1FFF1FA217B307E407F6
:10120000F50720F0A21BB30BE40BF50B661F771F4D
:10121000881F991F1A9469F760957095809590952D
:101220009B01AC01BD01CF010895A29FB001B39F06
:10123000C001A39F700D811D1124911DB29F700DDF
:10124000811D1124911D08955058BB27AA270E9483
:101250003C090C94AF0A0E94A10A38F00E94A80A27
:1012600020F039F49F3F19F426F40C949E0A0EF4F2
:10127000E095E7FB0C94980AE92F0E94C00A58F306
:10128000BA17620773078407950720F079F4A6F56B
:101290000C94E20A0EF4E0950B2EBA2FA02D0B0150
:1012A000B90190010C01CA01A0011124FF27591BAB
:1012B00099F0593F50F4503E68F11A16F040A22FB1
:1012C000232F342F4427585FF3CF46953795279522
:1012D000A795F0405395C9F77EF41F16BA0B620B21
:1012E000730B840BBAF09150A1F0FF0FBB1F661F68
:1012F000771F881FC2F70EC0BA0F621F731F841FAB
:1013000048F4879577956795B795F7959E3F08F0D0
:10131000B0CF9395880F08F09927EE0F9795879592
:1013200008950E94740A08F481E008950E94AA09B1
:101330000C94AF0A0E94A80A58F00E94A10A40F03B
:1013400029F45F3F29F00C94980A51110C94E30A98
:101350000C949E0A0E94C00A68F39923B1F35523A6
:1013600091F3951B550BBB27AA27621773078407B8
:1013700038F09F5F5F4F220F331F441FAA1FA9F34E
:1013800035D00E2E3AF0E0E832D091505040E6953C
:10139000001CCAF72BD0FE2F29D0660F771F881F9D
:1013A000BB1F261737074807AB07B0E809F0BB0B90
:1013B000802DBF01FF2793585F4F3AF09E3F5105A4
:1013C00078F00C94980A0C94E30A5F3FE4F3983E9B
:1013D000D4F3869577956795B795F7959F5FC9F78D
:1013E000880F911D9695879597F90895E1E0660F0E
:1013F000771F881FBB1F621773078407BA0720F087
:10140000621B730B840BBA0BEE1F88F7E0950895EF
:101410000E94C80A88F09F5798F0B92F9927B751B2
:10142000B0F0E1F0660F771F881F991F1AF0BA9588
:10143000C9F714C0B13091F00E94E20AB1E00895FA
:101440000C94E20A672F782F8827B85F39F0B93FEC
:10145000CCF3869577956795B395D9F73EF490953B
:101460008095709561957F4F8F4F9F4F0895E894B9
:1014700009C097FB3EF490958095709561957F4FDC
:101480008F4F9F4F9923A9F0F92F96E9BB2793958A
:10149000F695879577956795B795F111F8CFFAF49A
:1014A000BB0F11F460FF1BC06F5F7F4F8F4F9F4FCB
:1014B00016C0882311F096E911C0772321F09EE829
:1014C000872F762F05C0662371F096E8862F70E08F
:1014D00060E02AF09A95660F771F881FDAF7880F69
:1014E0009695879597F90895990F0008550FAA0BBF
:1014F000E0E8FEEF16161706E807F907C0F0121627
:101500001306E407F50798F0621B730B840B950B29
:1015100039F40A2661F0232B242B252B21F408957E
:101520000A2609F4A140A6958FEF811D811D08951B
:1015300097F99F6780E870E060E008959FEF80EC86
:10154000089500240A941616170618060906089529
:1015500000240A9412161306140605060895092E8F
:101560000394000C11F4882352F0BB0F40F4BF2BFE
:1015700011F460FF04C06F5F7F4F8F4F9F4F08953E
:1015800057FD9058440F551F59F05F3F71F0479534
:10159000880F97FB991F61F09F3F79F08795089519
:1015A000121613061406551FF2CF4695F1DF08C038
:1015B000161617061806991FF1CF86957105610555
:1015C00008940895E894BB2766277727CB0197F9FD
:1015D00008950E94740A08F48FEF08950E94010B89
:1015E0000C94AF0A0E94A10A38F00E94A80A20F0C9
:1015F000952311F00C94980A0C949E0A11240C94D3
:10160000E30A0E94C00A70F3959FC1F3950F50E062
:10161000551F629FF001729FBB27F00DB11D639FA4
:10162000AA27F00DB11DAA1F649F6627B00DA11D4A
:10163000661F829F2227B00DA11D621F739FB00DF0
:10164000A11D621F839FA00D611D221F749F332760
:10165000A00D611D231F849F600D211D822F762FF9
:101660006A2F11249F5750409AF0F1F088234AF0D6
:10167000EE0FFF1FBB1F661F771F881F9150504042
:10168000A9F79E3F510580F00C94980A0C94E30A48
:101690005F3FE4F3983ED4F3869577956795B795C9
:1016A000F795E7959F5FC1F7FE2B880F911D9695E3
:1016B000879597F908950E94740A880B990B0895ED
:1016C0000E941509B7FF0895821B930B0895EE0F32
:1016D000FF1F0590F491E02D0994F894FFCF0000CE
:1016E00000005B02BB01E801C3021902F7010B0213
:1016F000000000003504BB01E402E3020D0A006EA5
:10170000616E00696E66006F76660050554D503A06
:101710004F4E200050554D503A4F464620004C4108
:101720004D503A4F4E20004C414D503A4F464620C6
:1017300000484541543A4F4E2000484541543A4FE5
:101740004646200020202053797374656D204F6E2B
:101750006C696E65202000483A0025202000533A2D
:10176000002520004C3A00543A004320002020205D
:041770002020200015
:107E0000112484B714BE81FFF0D085E080938100F7
:107E100082E08093C00088E18093C10086E0809377
:107E2000C20080E18093C4008EE0C9D0259A86E02C
:107E300020E33CEF91E0309385002093840096BBD3
:107E4000B09BFECF1D9AA8958150A9F7CC24DD24C4
:107E500088248394B5E0AB2EA1E19A2EF3E0BF2EE7
:107E6000A2D0813461F49FD0082FAFD0023811F036
:107E7000013811F484E001C083E08DD089C08234E0
:107E800011F484E103C0853419F485E0A6D080C0E4
:107E9000853579F488D0E82EFF2485D0082F10E0AE
:107EA000102F00270E291F29000F111F8ED06801E7
:107EB0006FC0863521F484E090D080E0DECF843638
:107EC00009F040C070D06FD0082F6DD080E0C81688
:107ED00080E7D80618F4F601B7BEE895C0E0D1E017
:107EE00062D089930C17E1F7F0E0CF16F0E7DF06D8
:107EF00018F0F601B7BEE89568D007B600FCFDCFD4
:107F0000A601A0E0B1E02C9130E011968C91119780
:107F100090E0982F8827822B932B1296FA010C0160
:107F200087BEE89511244E5F5F4FF1E0A038BF0790
:107F300051F7F601A7BEE89507B600FCFDCF97BE46
:107F4000E89526C08437B1F42ED02DD0F82E2BD052
:107F50003CD0F601EF2C8F010F5F1F4F84911BD097
:107F6000EA94F801C1F70894C11CD11CFA94CF0C13
:107F7000D11C0EC0853739F428D08EE10CD085E9AC
:107F80000AD08FE07ACF813511F488E018D01DD067
:107F900080E101D065CF982F8091C00085FFFCCF94
:107FA0009093C60008958091C00087FFFCCF809118
:107FB000C00084FD01C0A8958091C6000895E0E648
:107FC000F0E098E1908380830895EDDF803219F02E
:107FD00088E0F5DFFFCF84E1DECF1F93182FE3DFCA
:107FE0001150E9F7F2DF1F91089580E0E8DFEE27F6
:047FF000FF270994CA
:027FFE00040479
:00000001FF
